{
  "address": "0xD7A46C3648c0666C08fDD61df2069035DE047BC9",
  "abi": [
    {
      "inputs": [],
      "stateMutability": "nonpayable",
      "type": "constructor"
    },
    {
      "inputs": [],
      "name": "MintPioneers_NoTokensOwned",
      "type": "error"
    },
    {
      "anonymous": false,
      "inputs": [
        {
          "indexed": true,
          "internalType": "address",
          "name": "owner",
          "type": "address"
        },
        {
          "indexed": true,
          "internalType": "address",
          "name": "spender",
          "type": "address"
        },
        {
          "indexed": false,
          "internalType": "uint256",
          "name": "value",
          "type": "uint256"
        }
      ],
      "name": "Approval",
      "type": "event"
    },
    {
      "anonymous": false,
      "inputs": [
        {
          "indexed": true,
          "internalType": "address",
          "name": "from",
          "type": "address"
        },
        {
          "indexed": true,
          "internalType": "address",
          "name": "to",
          "type": "address"
        },
        {
          "indexed": false,
          "internalType": "uint256",
          "name": "value",
          "type": "uint256"
        }
      ],
      "name": "Transfer",
      "type": "event"
    },
    {
      "anonymous": false,
      "inputs": [
        {
          "indexed": false,
          "internalType": "uint256",
          "name": "intialSupply",
          "type": "uint256"
        }
      ],
      "name": "mintPioneers_TokenMinted",
      "type": "event"
    },
    {
      "inputs": [],
      "name": "DOMAIN_SEPARATOR",
      "outputs": [
        {
          "internalType": "bytes32",
          "name": "",
          "type": "bytes32"
        }
      ],
      "stateMutability": "view",
      "type": "function"
    },
    {
      "inputs": [
        {
          "internalType": "address",
          "name": "",
          "type": "address"
        }
      ],
      "name": "OwnerToToken",
      "outputs": [
        {
          "internalType": "uint256",
          "name": "",
          "type": "uint256"
        }
      ],
      "stateMutability": "view",
      "type": "function"
    },
    {
      "inputs": [
        {
          "internalType": "address",
          "name": "owner",
          "type": "address"
        },
        {
          "internalType": "address",
          "name": "spender",
          "type": "address"
        }
      ],
      "name": "allowance",
      "outputs": [
        {
          "internalType": "uint256",
          "name": "",
          "type": "uint256"
        }
      ],
      "stateMutability": "view",
      "type": "function"
    },
    {
      "inputs": [
        {
          "internalType": "address",
          "name": "spender",
          "type": "address"
        },
        {
          "internalType": "uint256",
          "name": "amount",
          "type": "uint256"
        }
      ],
      "name": "approve",
      "outputs": [
        {
          "internalType": "bool",
          "name": "",
          "type": "bool"
        }
      ],
      "stateMutability": "nonpayable",
      "type": "function"
    },
    {
      "inputs": [
        {
          "internalType": "address",
          "name": "account",
          "type": "address"
        }
      ],
      "name": "balanceOf",
      "outputs": [
        {
          "internalType": "uint256",
          "name": "",
          "type": "uint256"
        }
      ],
      "stateMutability": "view",
      "type": "function"
    },
    {
      "inputs": [],
      "name": "decimals",
      "outputs": [
        {
          "internalType": "uint8",
          "name": "",
          "type": "uint8"
        }
      ],
      "stateMutability": "view",
      "type": "function"
    },
    {
      "inputs": [
        {
          "internalType": "address",
          "name": "spender",
          "type": "address"
        },
        {
          "internalType": "uint256",
          "name": "subtractedValue",
          "type": "uint256"
        }
      ],
      "name": "decreaseAllowance",
      "outputs": [
        {
          "internalType": "bool",
          "name": "",
          "type": "bool"
        }
      ],
      "stateMutability": "nonpayable",
      "type": "function"
    },
    {
      "inputs": [],
      "name": "getEqviEth",
      "outputs": [
        {
          "internalType": "uint256",
          "name": "",
          "type": "uint256"
        }
      ],
      "stateMutability": "view",
      "type": "function"
    },
    {
      "inputs": [
        {
          "internalType": "address",
          "name": "spender",
          "type": "address"
        },
        {
          "internalType": "uint256",
          "name": "addedValue",
          "type": "uint256"
        }
      ],
      "name": "increaseAllowance",
      "outputs": [
        {
          "internalType": "bool",
          "name": "",
          "type": "bool"
        }
      ],
      "stateMutability": "nonpayable",
      "type": "function"
    },
    {
      "inputs": [],
      "name": "latestRoundData",
      "outputs": [
        {
          "internalType": "uint256",
          "name": "",
          "type": "uint256"
        }
      ],
      "stateMutability": "view",
      "type": "function"
    },
    {
      "inputs": [
        {
          "internalType": "uint256",
          "name": "initialSupply",
          "type": "uint256"
        }
      ],
      "name": "mintTokens",
      "outputs": [],
      "stateMutability": "payable",
      "type": "function"
    },
    {
      "inputs": [],
      "name": "name",
      "outputs": [
        {
          "internalType": "string",
          "name": "",
          "type": "string"
        }
      ],
      "stateMutability": "view",
      "type": "function"
    },
    {
      "inputs": [
        {
          "internalType": "address",
          "name": "owner",
          "type": "address"
        }
      ],
      "name": "nonces",
      "outputs": [
        {
          "internalType": "uint256",
          "name": "",
          "type": "uint256"
        }
      ],
      "stateMutability": "view",
      "type": "function"
    },
    {
      "inputs": [
        {
          "internalType": "address",
          "name": "owner",
          "type": "address"
        },
        {
          "internalType": "address",
          "name": "spender",
          "type": "address"
        },
        {
          "internalType": "uint256",
          "name": "value",
          "type": "uint256"
        },
        {
          "internalType": "uint256",
          "name": "deadline",
          "type": "uint256"
        },
        {
          "internalType": "uint8",
          "name": "v",
          "type": "uint8"
        },
        {
          "internalType": "bytes32",
          "name": "r",
          "type": "bytes32"
        },
        {
          "internalType": "bytes32",
          "name": "s",
          "type": "bytes32"
        }
      ],
      "name": "permit",
      "outputs": [],
      "stateMutability": "nonpayable",
      "type": "function"
    },
    {
      "inputs": [],
      "name": "symbol",
      "outputs": [
        {
          "internalType": "string",
          "name": "",
          "type": "string"
        }
      ],
      "stateMutability": "view",
      "type": "function"
    },
    {
      "inputs": [],
      "name": "totalSupply",
      "outputs": [
        {
          "internalType": "uint256",
          "name": "",
          "type": "uint256"
        }
      ],
      "stateMutability": "view",
      "type": "function"
    },
    {
      "inputs": [
        {
          "internalType": "address",
          "name": "to",
          "type": "address"
        },
        {
          "internalType": "uint256",
          "name": "amount",
          "type": "uint256"
        }
      ],
      "name": "transfer",
      "outputs": [
        {
          "internalType": "bool",
          "name": "",
          "type": "bool"
        }
      ],
      "stateMutability": "nonpayable",
      "type": "function"
    },
    {
      "inputs": [
        {
          "internalType": "address",
          "name": "from",
          "type": "address"
        },
        {
          "internalType": "address",
          "name": "to",
          "type": "address"
        },
        {
          "internalType": "uint256",
          "name": "amount",
          "type": "uint256"
        }
      ],
      "name": "transferFrom",
      "outputs": [
        {
          "internalType": "bool",
          "name": "",
          "type": "bool"
        }
      ],
      "stateMutability": "nonpayable",
      "type": "function"
    }
  ],
  "transactionHash": "0xcd0eb5516835fd8d1d084986fe6bb6877924ead148a37e9ac1098c9e23ac60f9",
  "args": [],
  "numDeployments": 1,
  "solcInputHash": "d4db6e67e21fd4464c62a58788fc9959",
  "bytecode": "0x61014060405260006009553480156200001757600080fd5b506040518060400160405280600881526020017f50696f6e65657273000000000000000000000000000000000000000000000000815250806040518060400160405280600181526020017f31000000000000000000000000000000000000000000000000000000000000008152506040518060400160405280600881526020017f50696f6e656572730000000000000000000000000000000000000000000000008152506040518060400160405280600381526020017f50494f00000000000000000000000000000000000000000000000000000000008152508160039081620001029190620004db565b508060049081620001149190620004db565b50505060008280519060200120905060008280519060200120905060007f8b73c3c69bb8fe3d512ecc4cf759cc79239f7b179b0ffacaa9a75d522b39400f90508260e081815250508161010081815250504660a08181525050620001808184846200022560201b60201c565b608081815250503073ffffffffffffffffffffffffffffffffffffffff1660c08173ffffffffffffffffffffffffffffffffffffffff168152505080610120818152505050505050505073d4a33860578de61dbabdc8bfdb98fd742fa7028e600760006101000a81548173ffffffffffffffffffffffffffffffffffffffff021916908373ffffffffffffffffffffffffffffffffffffffff16021790555062000690565b600083838346306040516020016200024295949392919062000633565b6040516020818303038152906040528051906020012090509392505050565b600081519050919050565b7f4e487b7100000000000000000000000000000000000000000000000000000000600052604160045260246000fd5b7f4e487b7100000000000000000000000000000000000000000000000000000000600052602260045260246000fd5b60006002820490506001821680620002e357607f821691505b602082108103620002f957620002f86200029b565b5b50919050565b60008190508160005260206000209050919050565b60006020601f8301049050919050565b600082821b905092915050565b600060088302620003637fffffffffffffffffffffffffffffffffffffffffffffffffffffffffffffffff8262000324565b6200036f868362000324565b95508019841693508086168417925050509392505050565b6000819050919050565b6000819050919050565b6000620003bc620003b6620003b08462000387565b62000391565b62000387565b9050919050565b6000819050919050565b620003d8836200039b565b620003f0620003e782620003c3565b84845462000331565b825550505050565b600090565b62000407620003f8565b62000414818484620003cd565b505050565b5b818110156200043c5762000430600082620003fd565b6001810190506200041a565b5050565b601f8211156200048b576200045581620002ff565b620004608462000314565b8101602085101562000470578190505b620004886200047f8562000314565b83018262000419565b50505b505050565b600082821c905092915050565b6000620004b06000198460080262000490565b1980831691505092915050565b6000620004cb83836200049d565b9150826002028217905092915050565b620004e68262000261565b67ffffffffffffffff8111156200050257620005016200026c565b5b6200050e8254620002ca565b6200051b82828562000440565b600060209050601f8311600181146200055357600084156200053e578287015190505b6200054a8582620004bd565b865550620005ba565b601f1984166200056386620002ff565b60005b828110156200058d5784890151825560018201915060208501945060208101905062000566565b86831015620005ad5784890151620005a9601f8916826200049d565b8355505b6001600288020188555050505b505050505050565b6000819050919050565b620005d781620005c2565b82525050565b620005e88162000387565b82525050565b600073ffffffffffffffffffffffffffffffffffffffff82169050919050565b60006200061b82620005ee565b9050919050565b6200062d816200060e565b82525050565b600060a0820190506200064a6000830188620005cc565b620006596020830187620005cc565b620006686040830186620005cc565b620006776060830185620005dd565b62000686608083018462000622565b9695505050505050565b60805160a05160c05160e051610100516101205161265c620006e060003960006111c80152600061120a015260006111e90152600061111e015260006111740152600061119d015261265c6000f3fe6080604052600436106101095760003560e01c80637ecebe0011610095578063a9059cbb11610064578063a9059cbb1461039a578063c0c90bc5146103d7578063d505accf14610414578063dd62ed3e1461043d578063feaf968c1461047a57610109565b80637ecebe00146102d957806395d89b411461031657806397304ced14610341578063a457c2d71461035d57610109565b80632cb62e93116100dc5780632cb62e93146101de578063313ce567146102095780633644e51514610234578063395093511461025f57806370a082311461029c57610109565b806306fdde031461010e578063095ea7b31461013957806318160ddd1461017657806323b872dd146101a1575b600080fd5b34801561011a57600080fd5b506101236104a5565b60405161013091906117a0565b60405180910390f35b34801561014557600080fd5b50610160600480360381019061015b919061185b565b610537565b60405161016d91906118b6565b60405180910390f35b34801561018257600080fd5b5061018b61055a565b60405161019891906118e0565b60405180910390f35b3480156101ad57600080fd5b506101c860048036038101906101c391906118fb565b610564565b6040516101d591906118b6565b60405180910390f35b3480156101ea57600080fd5b506101f3610593565b60405161020091906118e0565b60405180910390f35b34801561021557600080fd5b5061021e61066a565b60405161022b919061196a565b60405180910390f35b34801561024057600080fd5b50610249610673565b604051610256919061199e565b60405180910390f35b34801561026b57600080fd5b506102866004803603810190610281919061185b565b610682565b60405161029391906118b6565b60405180910390f35b3480156102a857600080fd5b506102c360048036038101906102be91906119b9565b6106b9565b6040516102d091906118e0565b60405180910390f35b3480156102e557600080fd5b5061030060048036038101906102fb91906119b9565b610701565b60405161030d91906118e0565b60405180910390f35b34801561032257600080fd5b5061032b610751565b60405161033891906117a0565b60405180910390f35b61035b600480360381019061035691906119e6565b6107e3565b005b34801561036957600080fd5b50610384600480360381019061037f919061185b565b6108b5565b60405161039191906118b6565b60405180910390f35b3480156103a657600080fd5b506103c160048036038101906103bc919061185b565b61092c565b6040516103ce91906118b6565b60405180910390f35b3480156103e357600080fd5b506103fe60048036038101906103f991906119b9565b61094f565b60405161040b91906118e0565b60405180910390f35b34801561042057600080fd5b5061043b60048036038101906104369190611a6b565b610967565b005b34801561044957600080fd5b50610464600480360381019061045f9190611b0d565b610aa9565b60405161047191906118e0565b60405180910390f35b34801561048657600080fd5b5061048f610b30565b60405161049c91906118e0565b60405180910390f35b6060600380546104b490611b7c565b80601f01602080910402602001604051908101604052809291908181526020018280546104e090611b7c565b801561052d5780601f106105025761010080835404028352916020019161052d565b820191906000526020600020905b81548152906001019060200180831161051057829003601f168201915b5050505050905090565b600080610542610c47565b905061054f818585610c4f565b600191505092915050565b6000600254905090565b60008061056f610c47565b905061057c858285610e18565b610587858585610ea4565b60019150509392505050565b600080600860003373ffffffffffffffffffffffffffffffffffffffff1673ffffffffffffffffffffffffffffffffffffffff168152602001908152602001600020540361060d576040517f606fdf0000000000000000000000000000000000000000000000000000000000815260040160405180910390fd5b60026001600860003373ffffffffffffffffffffffffffffffffffffffff1673ffffffffffffffffffffffffffffffffffffffff1681526020019081526020016000205461065b9190611bdc565b6106659190611c4d565b905090565b60006012905090565b600061067d61111a565b905090565b60008061068d610c47565b90506106ae81858561069f8589610aa9565b6106a99190611c7e565b610c4f565b600191505092915050565b60008060008373ffffffffffffffffffffffffffffffffffffffff1673ffffffffffffffffffffffffffffffffffffffff168152602001908152602001600020549050919050565b600061074a600560008473ffffffffffffffffffffffffffffffffffffffff1673ffffffffffffffffffffffffffffffffffffffff168152602001908152602001600020611234565b9050919050565b60606004805461076090611b7c565b80601f016020809104026020016040519081016040528092919081815260200182805461078c90611b7c565b80156107d95780601f106107ae576101008083540402835291602001916107d9565b820191906000526020600020905b8154815290600101906020018083116107bc57829003601f168201915b5050505050905090565b80600860003373ffffffffffffffffffffffffffffffffffffffff1673ffffffffffffffffffffffffffffffffffffffff1681526020019081526020016000205461082e9190611c7e565b600860003373ffffffffffffffffffffffffffffffffffffffff1673ffffffffffffffffffffffffffffffffffffffff1681526020019081526020016000208190555061087b3382611242565b7f58cf4b39c3689313f11cd2d90f024e097c77e5ec480b91094f96564f51262270816040516108aa91906118e0565b60405180910390a150565b6000806108c0610c47565b905060006108ce8286610aa9565b905083811015610913576040517f08c379a000000000000000000000000000000000000000000000000000000000815260040161090a90611d24565b60405180910390fd5b6109208286868403610c4f565b60019250505092915050565b600080610937610c47565b9050610944818585610ea4565b600191505092915050565b60086020528060005260406000206000915090505481565b834211156109aa576040517f08c379a00000000000000000000000000000000000000000000000000000000081526004016109a190611d90565b60405180910390fd5b60007f6e71edae12b1b97f4d1f60370fef10105fa2faae0126114a169c64845d6126c98888886109d98c611398565b896040516020016109ef96959493929190611dbf565b6040516020818303038152906040528051906020012090506000610a12826113f6565b90506000610a2282878787611410565b90508973ffffffffffffffffffffffffffffffffffffffff168173ffffffffffffffffffffffffffffffffffffffff1614610a92576040517f08c379a0000000000000000000000000000000000000000000000000000000008152600401610a8990611e6c565b60405180910390fd5b610a9d8a8a8a610c4f565b50505050505050505050565b6000600160008473ffffffffffffffffffffffffffffffffffffffff1673ffffffffffffffffffffffffffffffffffffffff16815260200190815260200160002060008373ffffffffffffffffffffffffffffffffffffffff1673ffffffffffffffffffffffffffffffffffffffff16815260200190815260200160002054905092915050565b600080600080600080600760009054906101000a900473ffffffffffffffffffffffffffffffffffffffff1673ffffffffffffffffffffffffffffffffffffffff1663feaf968c6040518163ffffffff1660e01b815260040160a060405180830381865afa158015610ba6573d6000803e3d6000fd5b505050506040513d601f19601f82011682018060405250810190610bca9190611f19565b9450945094509450945060006002600186600860003373ffffffffffffffffffffffffffffffffffffffff1673ffffffffffffffffffffffffffffffffffffffff16815260200190815260200160002054610c259190611bdc565b610c2f9190611bdc565b610c399190611c4d565b905080965050505050505090565b600033905090565b600073ffffffffffffffffffffffffffffffffffffffff168373ffffffffffffffffffffffffffffffffffffffff1603610cbe576040517f08c379a0000000000000000000000000000000000000000000000000000000008152600401610cb590612006565b60405180910390fd5b600073ffffffffffffffffffffffffffffffffffffffff168273ffffffffffffffffffffffffffffffffffffffff1603610d2d576040517f08c379a0000000000000000000000000000000000000000000000000000000008152600401610d2490612098565b60405180910390fd5b80600160008573ffffffffffffffffffffffffffffffffffffffff1673ffffffffffffffffffffffffffffffffffffffff16815260200190815260200160002060008473ffffffffffffffffffffffffffffffffffffffff1673ffffffffffffffffffffffffffffffffffffffff168152602001908152602001600020819055508173ffffffffffffffffffffffffffffffffffffffff168373ffffffffffffffffffffffffffffffffffffffff167f8c5be1e5ebec7d5bd14f71427d1e84f3dd0314c0f7b2291e5b200ac8c7c3b92583604051610e0b91906118e0565b60405180910390a3505050565b6000610e248484610aa9565b90507fffffffffffffffffffffffffffffffffffffffffffffffffffffffffffffffff8114610e9e5781811015610e90576040517f08c379a0000000000000000000000000000000000000000000000000000000008152600401610e8790612104565b60405180910390fd5b610e9d8484848403610c4f565b5b50505050565b600073ffffffffffffffffffffffffffffffffffffffff168373ffffffffffffffffffffffffffffffffffffffff1603610f13576040517f08c379a0000000000000000000000000000000000000000000000000000000008152600401610f0a90612196565b60405180910390fd5b600073ffffffffffffffffffffffffffffffffffffffff168273ffffffffffffffffffffffffffffffffffffffff1603610f82576040517f08c379a0000000000000000000000000000000000000000000000000000000008152600401610f7990612228565b60405180910390fd5b610f8d83838361143b565b60008060008573ffffffffffffffffffffffffffffffffffffffff1673ffffffffffffffffffffffffffffffffffffffff16815260200190815260200160002054905081811015611013576040517f08c379a000000000000000000000000000000000000000000000000000000000815260040161100a906122ba565b60405180910390fd5b8181036000808673ffffffffffffffffffffffffffffffffffffffff1673ffffffffffffffffffffffffffffffffffffffff16815260200190815260200160002081905550816000808573ffffffffffffffffffffffffffffffffffffffff1673ffffffffffffffffffffffffffffffffffffffff168152602001908152602001600020600082825401925050819055508273ffffffffffffffffffffffffffffffffffffffff168473ffffffffffffffffffffffffffffffffffffffff167fddf252ad1be2c89b69c2b068fc378daa952ba7f163c4a11628f55a4df523b3ef8460405161110191906118e0565b60405180910390a3611114848484611440565b50505050565b60007f000000000000000000000000000000000000000000000000000000000000000073ffffffffffffffffffffffffffffffffffffffff163073ffffffffffffffffffffffffffffffffffffffff1614801561119657507f000000000000000000000000000000000000000000000000000000000000000046145b156111c3577f00000000000000000000000000000000000000000000000000000000000000009050611231565b61122e7f00000000000000000000000000000000000000000000000000000000000000007f00000000000000000000000000000000000000000000000000000000000000007f0000000000000000000000000000000000000000000000000000000000000000611445565b90505b90565b600081600001549050919050565b600073ffffffffffffffffffffffffffffffffffffffff168273ffffffffffffffffffffffffffffffffffffffff16036112b1576040517f08c379a00000000000000000000000000000000000000000000000000000000081526004016112a890612326565b60405180910390fd5b6112bd6000838361143b565b80600260008282546112cf9190611c7e565b92505081905550806000808473ffffffffffffffffffffffffffffffffffffffff1673ffffffffffffffffffffffffffffffffffffffff168152602001908152602001600020600082825401925050819055508173ffffffffffffffffffffffffffffffffffffffff16600073ffffffffffffffffffffffffffffffffffffffff167fddf252ad1be2c89b69c2b068fc378daa952ba7f163c4a11628f55a4df523b3ef8360405161138091906118e0565b60405180910390a361139460008383611440565b5050565b600080600560008473ffffffffffffffffffffffffffffffffffffffff1673ffffffffffffffffffffffffffffffffffffffff16815260200190815260200160002090506113e581611234565b91506113f08161147f565b50919050565b600061140961140361111a565b83611495565b9050919050565b6000806000611421878787876114c8565b9150915061142e816115aa565b8192505050949350505050565b505050565b505050565b60008383834630604051602001611460959493929190612346565b6040516020818303038152906040528051906020012090509392505050565b6001816000016000828254019250508190555050565b600082826040516020016114aa929190612411565b60405160208183030381529060405280519060200120905092915050565b6000807f7fffffffffffffffffffffffffffffff5d576e7357a4501ddfe92f46681b20a08360001c11156115035760006003915091506115a1565b6000600187878787604051600081526020016040526040516115289493929190612448565b6020604051602081039080840390855afa15801561154a573d6000803e3d6000fd5b505050602060405103519050600073ffffffffffffffffffffffffffffffffffffffff168173ffffffffffffffffffffffffffffffffffffffff1603611598576000600192509250506115a1565b80600092509250505b94509492505050565b600060048111156115be576115bd61248d565b5b8160048111156115d1576115d061248d565b5b031561170d57600160048111156115eb576115ea61248d565b5b8160048111156115fe576115fd61248d565b5b0361163e576040517f08c379a000000000000000000000000000000000000000000000000000000000815260040161163590612508565b60405180910390fd5b600260048111156116525761165161248d565b5b8160048111156116655761166461248d565b5b036116a5576040517f08c379a000000000000000000000000000000000000000000000000000000000815260040161169c90612574565b60405180910390fd5b600360048111156116b9576116b861248d565b5b8160048111156116cc576116cb61248d565b5b0361170c576040517f08c379a000000000000000000000000000000000000000000000000000000000815260040161170390612606565b60405180910390fd5b5b50565b600081519050919050565b600082825260208201905092915050565b60005b8381101561174a57808201518184015260208101905061172f565b60008484015250505050565b6000601f19601f8301169050919050565b600061177282611710565b61177c818561171b565b935061178c81856020860161172c565b61179581611756565b840191505092915050565b600060208201905081810360008301526117ba8184611767565b905092915050565b600080fd5b600073ffffffffffffffffffffffffffffffffffffffff82169050919050565b60006117f2826117c7565b9050919050565b611802816117e7565b811461180d57600080fd5b50565b60008135905061181f816117f9565b92915050565b6000819050919050565b61183881611825565b811461184357600080fd5b50565b6000813590506118558161182f565b92915050565b60008060408385031215611872576118716117c2565b5b600061188085828601611810565b925050602061189185828601611846565b9150509250929050565b60008115159050919050565b6118b08161189b565b82525050565b60006020820190506118cb60008301846118a7565b92915050565b6118da81611825565b82525050565b60006020820190506118f560008301846118d1565b92915050565b600080600060608486031215611914576119136117c2565b5b600061192286828701611810565b935050602061193386828701611810565b925050604061194486828701611846565b9150509250925092565b600060ff82169050919050565b6119648161194e565b82525050565b600060208201905061197f600083018461195b565b92915050565b6000819050919050565b61199881611985565b82525050565b60006020820190506119b3600083018461198f565b92915050565b6000602082840312156119cf576119ce6117c2565b5b60006119dd84828501611810565b91505092915050565b6000602082840312156119fc576119fb6117c2565b5b6000611a0a84828501611846565b91505092915050565b611a1c8161194e565b8114611a2757600080fd5b50565b600081359050611a3981611a13565b92915050565b611a4881611985565b8114611a5357600080fd5b50565b600081359050611a6581611a3f565b92915050565b600080600080600080600060e0888a031215611a8a57611a896117c2565b5b6000611a988a828b01611810565b9750506020611aa98a828b01611810565b9650506040611aba8a828b01611846565b9550506060611acb8a828b01611846565b9450506080611adc8a828b01611a2a565b93505060a0611aed8a828b01611a56565b92505060c0611afe8a828b01611a56565b91505092959891949750929550565b60008060408385031215611b2457611b236117c2565b5b6000611b3285828601611810565b9250506020611b4385828601611810565b9150509250929050565b7f4e487b7100000000000000000000000000000000000000000000000000000000600052602260045260246000fd5b60006002820490506001821680611b9457607f821691505b602082108103611ba757611ba6611b4d565b5b50919050565b7f4e487b7100000000000000000000000000000000000000000000000000000000600052601160045260246000fd5b6000611be782611825565b9150611bf283611825565b9250828202611c0081611825565b91508282048414831517611c1757611c16611bad565b5b5092915050565b7f4e487b7100000000000000000000000000000000000000000000000000000000600052601260045260246000fd5b6000611c5882611825565b9150611c6383611825565b925082611c7357611c72611c1e565b5b828204905092915050565b6000611c8982611825565b9150611c9483611825565b9250828201905080821115611cac57611cab611bad565b5b92915050565b7f45524332303a2064656372656173656420616c6c6f77616e63652062656c6f7760008201527f207a65726f000000000000000000000000000000000000000000000000000000602082015250565b6000611d0e60258361171b565b9150611d1982611cb2565b604082019050919050565b60006020820190508181036000830152611d3d81611d01565b9050919050565b7f45524332305065726d69743a206578706972656420646561646c696e65000000600082015250565b6000611d7a601d8361171b565b9150611d8582611d44565b602082019050919050565b60006020820190508181036000830152611da981611d6d565b9050919050565b611db9816117e7565b82525050565b600060c082019050611dd4600083018961198f565b611de16020830188611db0565b611dee6040830187611db0565b611dfb60608301866118d1565b611e0860808301856118d1565b611e1560a08301846118d1565b979650505050505050565b7f45524332305065726d69743a20696e76616c6964207369676e61747572650000600082015250565b6000611e56601e8361171b565b9150611e6182611e20565b602082019050919050565b60006020820190508181036000830152611e8581611e49565b9050919050565b600069ffffffffffffffffffff82169050919050565b611eab81611e8c565b8114611eb657600080fd5b50565b600081519050611ec881611ea2565b92915050565b6000819050919050565b611ee181611ece565b8114611eec57600080fd5b50565b600081519050611efe81611ed8565b92915050565b600081519050611f138161182f565b92915050565b600080600080600060a08688031215611f3557611f346117c2565b5b6000611f4388828901611eb9565b9550506020611f5488828901611eef565b9450506040611f6588828901611f04565b9350506060611f7688828901611f04565b9250506080611f8788828901611eb9565b9150509295509295909350565b7f45524332303a20617070726f76652066726f6d20746865207a65726f2061646460008201527f7265737300000000000000000000000000000000000000000000000000000000602082015250565b6000611ff060248361171b565b9150611ffb82611f94565b604082019050919050565b6000602082019050818103600083015261201f81611fe3565b9050919050565b7f45524332303a20617070726f766520746f20746865207a65726f20616464726560008201527f7373000000000000000000000000000000000000000000000000000000000000602082015250565b600061208260228361171b565b915061208d82612026565b604082019050919050565b600060208201905081810360008301526120b181612075565b9050919050565b7f45524332303a20696e73756666696369656e7420616c6c6f77616e6365000000600082015250565b60006120ee601d8361171b565b91506120f9826120b8565b602082019050919050565b6000602082019050818103600083015261211d816120e1565b9050919050565b7f45524332303a207472616e736665722066726f6d20746865207a65726f20616460008201527f6472657373000000000000000000000000000000000000000000000000000000602082015250565b600061218060258361171b565b915061218b82612124565b604082019050919050565b600060208201905081810360008301526121af81612173565b9050919050565b7f45524332303a207472616e7366657220746f20746865207a65726f206164647260008201527f6573730000000000000000000000000000000000000000000000000000000000602082015250565b600061221260238361171b565b915061221d826121b6565b604082019050919050565b6000602082019050818103600083015261224181612205565b9050919050565b7f45524332303a207472616e7366657220616d6f756e742065786365656473206260008201527f616c616e63650000000000000000000000000000000000000000000000000000602082015250565b60006122a460268361171b565b91506122af82612248565b604082019050919050565b600060208201905081810360008301526122d381612297565b9050919050565b7f45524332303a206d696e7420746f20746865207a65726f206164647265737300600082015250565b6000612310601f8361171b565b915061231b826122da565b602082019050919050565b6000602082019050818103600083015261233f81612303565b9050919050565b600060a08201905061235b600083018861198f565b612368602083018761198f565b612375604083018661198f565b61238260608301856118d1565b61238f6080830184611db0565b9695505050505050565b600081905092915050565b7f1901000000000000000000000000000000000000000000000000000000000000600082015250565b60006123da600283612399565b91506123e5826123a4565b600282019050919050565b6000819050919050565b61240b61240682611985565b6123f0565b82525050565b600061241c826123cd565b915061242882856123fa565b60208201915061243882846123fa565b6020820191508190509392505050565b600060808201905061245d600083018761198f565b61246a602083018661195b565b612477604083018561198f565b612484606083018461198f565b95945050505050565b7f4e487b7100000000000000000000000000000000000000000000000000000000600052602160045260246000fd5b7f45434453413a20696e76616c6964207369676e61747572650000000000000000600082015250565b60006124f260188361171b565b91506124fd826124bc565b602082019050919050565b60006020820190508181036000830152612521816124e5565b9050919050565b7f45434453413a20696e76616c6964207369676e6174757265206c656e67746800600082015250565b600061255e601f8361171b565b915061256982612528565b602082019050919050565b6000602082019050818103600083015261258d81612551565b9050919050565b7f45434453413a20696e76616c6964207369676e6174757265202773272076616c60008201527f7565000000000000000000000000000000000000000000000000000000000000602082015250565b60006125f060228361171b565b91506125fb82612594565b604082019050919050565b6000602082019050818103600083015261261f816125e3565b905091905056fea2646970667358221220685fe58b85ee9a23bab2c6466a9da5970edc1281f81fdf4826735c094a0124ef64736f6c63430008110033",
  "devdoc": {
    "kind": "dev",
    "methods": {
      "DOMAIN_SEPARATOR()": {
        "details": "See {IERC20Permit-DOMAIN_SEPARATOR}."
      },
      "allowance(address,address)": {
        "details": "See {IERC20-allowance}."
      },
      "approve(address,uint256)": {
        "details": "See {IERC20-approve}. NOTE: If `amount` is the maximum `uint256`, the allowance is not updated on `transferFrom`. This is semantically equivalent to an infinite approval. Requirements: - `spender` cannot be the zero address."
      },
      "balanceOf(address)": {
        "details": "See {IERC20-balanceOf}."
      },
      "decimals()": {
        "details": "Returns the number of decimals used to get its user representation. For example, if `decimals` equals `2`, a balance of `505` tokens should be displayed to a user as `5.05` (`505 / 10 ** 2`). Tokens usually opt for a value of 18, imitating the relationship between Ether and Wei. This is the value {ERC20} uses, unless this function is overridden; NOTE: This information is only used for _display_ purposes: it in no way affects any of the arithmetic of the contract, including {IERC20-balanceOf} and {IERC20-transfer}."
      },
      "decreaseAllowance(address,uint256)": {
        "details": "Atomically decreases the allowance granted to `spender` by the caller. This is an alternative to {approve} that can be used as a mitigation for problems described in {IERC20-approve}. Emits an {Approval} event indicating the updated allowance. Requirements: - `spender` cannot be the zero address. - `spender` must have allowance for the caller of at least `subtractedValue`."
      },
      "increaseAllowance(address,uint256)": {
        "details": "Atomically increases the allowance granted to `spender` by the caller. This is an alternative to {approve} that can be used as a mitigation for problems described in {IERC20-approve}. Emits an {Approval} event indicating the updated allowance. Requirements: - `spender` cannot be the zero address."
      },
      "name()": {
        "details": "Returns the name of the token."
      },
      "nonces(address)": {
        "details": "See {IERC20Permit-nonces}."
      },
      "permit(address,address,uint256,uint256,uint8,bytes32,bytes32)": {
        "details": "See {IERC20Permit-permit}."
      },
      "symbol()": {
        "details": "Returns the symbol of the token, usually a shorter version of the name."
      },
      "totalSupply()": {
        "details": "See {IERC20-totalSupply}."
      },
      "transfer(address,uint256)": {
        "details": "See {IERC20-transfer}. Requirements: - `to` cannot be the zero address. - the caller must have a balance of at least `amount`."
      },
      "transferFrom(address,address,uint256)": {
        "details": "See {IERC20-transferFrom}. Emits an {Approval} event indicating the updated allowance. This is not required by the EIP. See the note at the beginning of {ERC20}. NOTE: Does not update the allowance if the current allowance is the maximum `uint256`. Requirements: - `from` and `to` cannot be the zero address. - `from` must have a balance of at least `amount`. - the caller must have allowance for ``from``'s tokens of at least `amount`."
      }
    },
    "version": 1
  },
  "userdoc": {
    "kind": "user",
    "methods": {},
    "version": 1
  },
  "storageLayout": {
    "storage": [
      {
        "astId": 61,
        "contract": "contracts/MintPioneers.sol:MintPioneers",
        "label": "_balances",
        "offset": 0,
        "slot": "0",
        "type": "t_mapping(t_address,t_uint256)"
      },
      {
        "astId": 67,
        "contract": "contracts/MintPioneers.sol:MintPioneers",
        "label": "_allowances",
        "offset": 0,
        "slot": "1",
        "type": "t_mapping(t_address,t_mapping(t_address,t_uint256))"
      },
      {
        "astId": 69,
        "contract": "contracts/MintPioneers.sol:MintPioneers",
        "label": "_totalSupply",
        "offset": 0,
        "slot": "2",
        "type": "t_uint256"
      },
      {
        "astId": 71,
        "contract": "contracts/MintPioneers.sol:MintPioneers",
        "label": "_name",
        "offset": 0,
        "slot": "3",
        "type": "t_string_storage"
      },
      {
        "astId": 73,
        "contract": "contracts/MintPioneers.sol:MintPioneers",
        "label": "_symbol",
        "offset": 0,
        "slot": "4",
        "type": "t_string_storage"
      },
      {
        "astId": 758,
        "contract": "contracts/MintPioneers.sol:MintPioneers",
        "label": "_nonces",
        "offset": 0,
        "slot": "5",
        "type": "t_mapping(t_address,t_struct(Counter)971_storage)"
      },
      {
        "astId": 766,
        "contract": "contracts/MintPioneers.sol:MintPioneers",
        "label": "_PERMIT_TYPEHASH_DEPRECATED_SLOT",
        "offset": 0,
        "slot": "6",
        "type": "t_bytes32"
      },
      {
        "astId": 2606,
        "contract": "contracts/MintPioneers.sol:MintPioneers",
        "label": "priceFeed",
        "offset": 0,
        "slot": "7",
        "type": "t_contract(AggregatorV3Interface)45"
      },
      {
        "astId": 2614,
        "contract": "contracts/MintPioneers.sol:MintPioneers",
        "label": "OwnerToToken",
        "offset": 0,
        "slot": "8",
        "type": "t_mapping(t_address,t_uint256)"
      },
      {
        "astId": 2619,
        "contract": "contracts/MintPioneers.sol:MintPioneers",
        "label": "eqvi_eth",
        "offset": 0,
        "slot": "9",
        "type": "t_uint256"
      }
    ],
    "types": {
      "t_address": {
        "encoding": "inplace",
        "label": "address",
        "numberOfBytes": "20"
      },
      "t_bytes32": {
        "encoding": "inplace",
        "label": "bytes32",
        "numberOfBytes": "32"
      },
      "t_contract(AggregatorV3Interface)45": {
        "encoding": "inplace",
        "label": "contract AggregatorV3Interface",
        "numberOfBytes": "20"
      },
      "t_mapping(t_address,t_mapping(t_address,t_uint256))": {
        "encoding": "mapping",
        "key": "t_address",
        "label": "mapping(address => mapping(address => uint256))",
        "numberOfBytes": "32",
        "value": "t_mapping(t_address,t_uint256)"
      },
      "t_mapping(t_address,t_struct(Counter)971_storage)": {
        "encoding": "mapping",
        "key": "t_address",
        "label": "mapping(address => struct Counters.Counter)",
        "numberOfBytes": "32",
        "value": "t_struct(Counter)971_storage"
      },
      "t_mapping(t_address,t_uint256)": {
        "encoding": "mapping",
        "key": "t_address",
        "label": "mapping(address => uint256)",
        "numberOfBytes": "32",
        "value": "t_uint256"
      },
      "t_string_storage": {
        "encoding": "bytes",
        "label": "string",
        "numberOfBytes": "32"
      },
      "t_struct(Counter)971_storage": {
        "encoding": "inplace",
        "label": "struct Counters.Counter",
        "members": [
          {
            "astId": 970,
            "contract": "contracts/MintPioneers.sol:MintPioneers",
            "label": "_value",
            "offset": 0,
            "slot": "0",
            "type": "t_uint256"
          }
        ],
        "numberOfBytes": "32"
      },
      "t_uint256": {
        "encoding": "inplace",
        "label": "uint256",
        "numberOfBytes": "32"
      }
    }
  }
}