{
  "address": "0xEC2A9D5deDD2EdB22Fd991730a591198e149b097",
  "abi": [
    {
      "inputs": [],
      "stateMutability": "nonpayable",
      "type": "constructor"
    },
    {
      "inputs": [],
      "name": "MintPioneers_NoTokensOwned",
      "type": "error"
    },
    {
      "anonymous": false,
      "inputs": [
        {
          "indexed": true,
          "internalType": "address",
          "name": "owner",
          "type": "address"
        },
        {
          "indexed": true,
          "internalType": "address",
          "name": "spender",
          "type": "address"
        },
        {
          "indexed": false,
          "internalType": "uint256",
          "name": "value",
          "type": "uint256"
        }
      ],
      "name": "Approval",
      "type": "event"
    },
    {
      "anonymous": false,
      "inputs": [
        {
          "indexed": true,
          "internalType": "address",
          "name": "from",
          "type": "address"
        },
        {
          "indexed": true,
          "internalType": "address",
          "name": "to",
          "type": "address"
        },
        {
          "indexed": false,
          "internalType": "uint256",
          "name": "value",
          "type": "uint256"
        }
      ],
      "name": "Transfer",
      "type": "event"
    },
    {
      "anonymous": false,
      "inputs": [
        {
          "indexed": false,
          "internalType": "uint256",
          "name": "intialSupply",
          "type": "uint256"
        }
      ],
      "name": "mintPioneers_TokenMinted",
      "type": "event"
    },
    {
      "inputs": [],
      "name": "DOMAIN_SEPARATOR",
      "outputs": [
        {
          "internalType": "bytes32",
          "name": "",
          "type": "bytes32"
        }
      ],
      "stateMutability": "view",
      "type": "function"
    },
    {
      "inputs": [
        {
          "internalType": "address",
          "name": "",
          "type": "address"
        }
      ],
      "name": "OwnerToToken",
      "outputs": [
        {
          "internalType": "uint256",
          "name": "",
          "type": "uint256"
        }
      ],
      "stateMutability": "view",
      "type": "function"
    },
    {
      "inputs": [
        {
          "internalType": "address",
          "name": "owner",
          "type": "address"
        },
        {
          "internalType": "address",
          "name": "spender",
          "type": "address"
        }
      ],
      "name": "allowance",
      "outputs": [
        {
          "internalType": "uint256",
          "name": "",
          "type": "uint256"
        }
      ],
      "stateMutability": "view",
      "type": "function"
    },
    {
      "inputs": [
        {
          "internalType": "address",
          "name": "spender",
          "type": "address"
        },
        {
          "internalType": "uint256",
          "name": "amount",
          "type": "uint256"
        }
      ],
      "name": "approve",
      "outputs": [
        {
          "internalType": "bool",
          "name": "",
          "type": "bool"
        }
      ],
      "stateMutability": "nonpayable",
      "type": "function"
    },
    {
      "inputs": [
        {
          "internalType": "address",
          "name": "account",
          "type": "address"
        }
      ],
      "name": "balanceOf",
      "outputs": [
        {
          "internalType": "uint256",
          "name": "",
          "type": "uint256"
        }
      ],
      "stateMutability": "view",
      "type": "function"
    },
    {
      "inputs": [],
      "name": "decimals",
      "outputs": [
        {
          "internalType": "uint8",
          "name": "",
          "type": "uint8"
        }
      ],
      "stateMutability": "view",
      "type": "function"
    },
    {
      "inputs": [
        {
          "internalType": "address",
          "name": "spender",
          "type": "address"
        },
        {
          "internalType": "uint256",
          "name": "subtractedValue",
          "type": "uint256"
        }
      ],
      "name": "decreaseAllowance",
      "outputs": [
        {
          "internalType": "bool",
          "name": "",
          "type": "bool"
        }
      ],
      "stateMutability": "nonpayable",
      "type": "function"
    },
    {
      "inputs": [],
      "name": "getAmt",
      "outputs": [
        {
          "internalType": "uint256",
          "name": "",
          "type": "uint256"
        }
      ],
      "stateMutability": "view",
      "type": "function"
    },
    {
      "inputs": [],
      "name": "getEqviEth",
      "outputs": [
        {
          "internalType": "uint256",
          "name": "",
          "type": "uint256"
        }
      ],
      "stateMutability": "view",
      "type": "function"
    },
    {
      "inputs": [
        {
          "internalType": "address",
          "name": "spender",
          "type": "address"
        },
        {
          "internalType": "uint256",
          "name": "addedValue",
          "type": "uint256"
        }
      ],
      "name": "increaseAllowance",
      "outputs": [
        {
          "internalType": "bool",
          "name": "",
          "type": "bool"
        }
      ],
      "stateMutability": "nonpayable",
      "type": "function"
    },
    {
      "inputs": [],
      "name": "latestRoundData",
      "outputs": [
        {
          "internalType": "uint256",
          "name": "",
          "type": "uint256"
        },
        {
          "internalType": "int256",
          "name": "",
          "type": "int256"
        }
      ],
      "stateMutability": "view",
      "type": "function"
    },
    {
      "inputs": [
        {
          "internalType": "uint256",
          "name": "initialSupply",
          "type": "uint256"
        }
      ],
      "name": "mintTokens",
      "outputs": [],
      "stateMutability": "payable",
      "type": "function"
    },
    {
      "inputs": [],
      "name": "name",
      "outputs": [
        {
          "internalType": "string",
          "name": "",
          "type": "string"
        }
      ],
      "stateMutability": "view",
      "type": "function"
    },
    {
      "inputs": [
        {
          "internalType": "address",
          "name": "owner",
          "type": "address"
        }
      ],
      "name": "nonces",
      "outputs": [
        {
          "internalType": "uint256",
          "name": "",
          "type": "uint256"
        }
      ],
      "stateMutability": "view",
      "type": "function"
    },
    {
      "inputs": [
        {
          "internalType": "address",
          "name": "owner",
          "type": "address"
        },
        {
          "internalType": "address",
          "name": "spender",
          "type": "address"
        },
        {
          "internalType": "uint256",
          "name": "value",
          "type": "uint256"
        },
        {
          "internalType": "uint256",
          "name": "deadline",
          "type": "uint256"
        },
        {
          "internalType": "uint8",
          "name": "v",
          "type": "uint8"
        },
        {
          "internalType": "bytes32",
          "name": "r",
          "type": "bytes32"
        },
        {
          "internalType": "bytes32",
          "name": "s",
          "type": "bytes32"
        }
      ],
      "name": "permit",
      "outputs": [],
      "stateMutability": "nonpayable",
      "type": "function"
    },
    {
      "inputs": [],
      "name": "symbol",
      "outputs": [
        {
          "internalType": "string",
          "name": "",
          "type": "string"
        }
      ],
      "stateMutability": "view",
      "type": "function"
    },
    {
      "inputs": [],
      "name": "totalSupply",
      "outputs": [
        {
          "internalType": "uint256",
          "name": "",
          "type": "uint256"
        }
      ],
      "stateMutability": "view",
      "type": "function"
    },
    {
      "inputs": [
        {
          "internalType": "address",
          "name": "to",
          "type": "address"
        },
        {
          "internalType": "uint256",
          "name": "amount",
          "type": "uint256"
        }
      ],
      "name": "transfer",
      "outputs": [
        {
          "internalType": "bool",
          "name": "",
          "type": "bool"
        }
      ],
      "stateMutability": "nonpayable",
      "type": "function"
    },
    {
      "inputs": [
        {
          "internalType": "address",
          "name": "from",
          "type": "address"
        },
        {
          "internalType": "address",
          "name": "to",
          "type": "address"
        },
        {
          "internalType": "uint256",
          "name": "amount",
          "type": "uint256"
        }
      ],
      "name": "transferFrom",
      "outputs": [
        {
          "internalType": "bool",
          "name": "",
          "type": "bool"
        }
      ],
      "stateMutability": "nonpayable",
      "type": "function"
    }
  ],
  "transactionHash": "0xceab1362546849f24cb76b212a1850a2f6d7f37203a754a8ec96ddc95e2d7103",
  "args": [],
  "numDeployments": 3,
  "solcInputHash": "40221b539ed85f602557ee7b20da0367",
  "bytecode": "0x61014060405260006009553480156200001757600080fd5b506040518060400160405280600881526020017f50696f6e65657273000000000000000000000000000000000000000000000000815250806040518060400160405280600181526020017f31000000000000000000000000000000000000000000000000000000000000008152506040518060400160405280600881526020017f50696f6e656572730000000000000000000000000000000000000000000000008152506040518060400160405280600381526020017f50494f00000000000000000000000000000000000000000000000000000000008152508160039081620001029190620004db565b508060049081620001149190620004db565b50505060008280519060200120905060008280519060200120905060007f8b73c3c69bb8fe3d512ecc4cf759cc79239f7b179b0ffacaa9a75d522b39400f90508260e081815250508161010081815250504660a08181525050620001808184846200022560201b60201c565b608081815250503073ffffffffffffffffffffffffffffffffffffffff1660c08173ffffffffffffffffffffffffffffffffffffffff168152505080610120818152505050505050505073d4a33860578de61dbabdc8bfdb98fd742fa7028e600760006101000a81548173ffffffffffffffffffffffffffffffffffffffff021916908373ffffffffffffffffffffffffffffffffffffffff16021790555062000690565b600083838346306040516020016200024295949392919062000633565b6040516020818303038152906040528051906020012090509392505050565b600081519050919050565b7f4e487b7100000000000000000000000000000000000000000000000000000000600052604160045260246000fd5b7f4e487b7100000000000000000000000000000000000000000000000000000000600052602260045260246000fd5b60006002820490506001821680620002e357607f821691505b602082108103620002f957620002f86200029b565b5b50919050565b60008190508160005260206000209050919050565b60006020601f8301049050919050565b600082821b905092915050565b600060088302620003637fffffffffffffffffffffffffffffffffffffffffffffffffffffffffffffffff8262000324565b6200036f868362000324565b95508019841693508086168417925050509392505050565b6000819050919050565b6000819050919050565b6000620003bc620003b6620003b08462000387565b62000391565b62000387565b9050919050565b6000819050919050565b620003d8836200039b565b620003f0620003e782620003c3565b84845462000331565b825550505050565b600090565b62000407620003f8565b62000414818484620003cd565b505050565b5b818110156200043c5762000430600082620003fd565b6001810190506200041a565b5050565b601f8211156200048b576200045581620002ff565b620004608462000314565b8101602085101562000470578190505b620004886200047f8562000314565b83018262000419565b50505b505050565b600082821c905092915050565b6000620004b06000198460080262000490565b1980831691505092915050565b6000620004cb83836200049d565b9150826002028217905092915050565b620004e68262000261565b67ffffffffffffffff8111156200050257620005016200026c565b5b6200050e8254620002ca565b6200051b82828562000440565b600060209050601f8311600181146200055357600084156200053e578287015190505b6200054a8582620004bd565b865550620005ba565b601f1984166200056386620002ff565b60005b828110156200058d5784890151825560018201915060208501945060208101905062000566565b86831015620005ad5784890151620005a9601f8916826200049d565b8355505b6001600288020188555050505b505050505050565b6000819050919050565b620005d781620005c2565b82525050565b620005e88162000387565b82525050565b600073ffffffffffffffffffffffffffffffffffffffff82169050919050565b60006200061b82620005ee565b9050919050565b6200062d816200060e565b82525050565b600060a0820190506200064a6000830188620005cc565b620006596020830187620005cc565b620006686040830186620005cc565b620006776060830185620005dd565b62000686608083018462000622565b9695505050505050565b60805160a05160c05160e05161010051610120516126db620006e0600039600061120f015260006112510152600061123001526000611165015260006111bb015260006111e401526126db6000f3fe6080604052600436106101145760003560e01c806370a08231116100a0578063a9059cbb11610064578063a9059cbb146103d0578063c0c90bc51461040d578063d505accf1461044a578063dd62ed3e14610473578063feaf968c146104b057610114565b806370a08231146102d25780637ecebe001461030f57806395d89b411461034c57806397304ced14610377578063a457c2d71461039357610114565b806323b872dd116100e757806323b872dd146101d75780632cb62e9314610214578063313ce5671461023f5780633644e5151461026a578063395093511461029557610114565b806306fdde0314610119578063095ea7b31461014457806315c191a91461018157806318160ddd146101ac575b600080fd5b34801561012557600080fd5b5061012e6104dc565b60405161013b91906117e7565b60405180910390f35b34801561015057600080fd5b5061016b600480360381019061016691906118a2565b61056e565b60405161017891906118fd565b60405180910390f35b34801561018d57600080fd5b50610196610591565b6040516101a39190611927565b60405180910390f35b3480156101b857600080fd5b506101c161059b565b6040516101ce9190611927565b60405180910390f35b3480156101e357600080fd5b506101fe60048036038101906101f99190611942565b6105a5565b60405161020b91906118fd565b60405180910390f35b34801561022057600080fd5b506102296105d4565b6040516102369190611927565b60405180910390f35b34801561024b57600080fd5b506102546106ab565b60405161026191906119b1565b60405180910390f35b34801561027657600080fd5b5061027f6106b4565b60405161028c91906119e5565b60405180910390f35b3480156102a157600080fd5b506102bc60048036038101906102b791906118a2565b6106c3565b6040516102c991906118fd565b60405180910390f35b3480156102de57600080fd5b506102f960048036038101906102f49190611a00565b6106fa565b6040516103069190611927565b60405180910390f35b34801561031b57600080fd5b5061033660048036038101906103319190611a00565b610742565b6040516103439190611927565b60405180910390f35b34801561035857600080fd5b50610361610792565b60405161036e91906117e7565b60405180910390f35b610391600480360381019061038c9190611a2d565b610824565b005b34801561039f57600080fd5b506103ba60048036038101906103b591906118a2565b6108f6565b6040516103c791906118fd565b60405180910390f35b3480156103dc57600080fd5b506103f760048036038101906103f291906118a2565b61096d565b60405161040491906118fd565b60405180910390f35b34801561041957600080fd5b50610434600480360381019061042f9190611a00565b610990565b6040516104419190611927565b60405180910390f35b34801561045657600080fd5b50610471600480360381019061046c9190611ab2565b6109a8565b005b34801561047f57600080fd5b5061049a60048036038101906104959190611b54565b610aea565b6040516104a79190611927565b60405180910390f35b3480156104bc57600080fd5b506104c5610b71565b6040516104d3929190611bad565b60405180910390f35b6060600380546104eb90611c05565b80601f016020809104026020016040519081016040528092919081815260200182805461051790611c05565b80156105645780601f1061053957610100808354040283529160200191610564565b820191906000526020600020905b81548152906001019060200180831161054757829003601f168201915b5050505050905090565b600080610579610c8e565b9050610586818585610c96565b600191505092915050565b6000600954905090565b6000600254905090565b6000806105b0610c8e565b90506105bd858285610e5f565b6105c8858585610eeb565b60019150509392505050565b600080600860003373ffffffffffffffffffffffffffffffffffffffff1673ffffffffffffffffffffffffffffffffffffffff168152602001908152602001600020540361064e576040517f606fdf0000000000000000000000000000000000000000000000000000000000815260040160405180910390fd5b60026001600860003373ffffffffffffffffffffffffffffffffffffffff1673ffffffffffffffffffffffffffffffffffffffff1681526020019081526020016000205461069c9190611c65565b6106a69190611cd6565b905090565b60006012905090565b60006106be611161565b905090565b6000806106ce610c8e565b90506106ef8185856106e08589610aea565b6106ea9190611d07565b610c96565b600191505092915050565b60008060008373ffffffffffffffffffffffffffffffffffffffff1673ffffffffffffffffffffffffffffffffffffffff168152602001908152602001600020549050919050565b600061078b600560008473ffffffffffffffffffffffffffffffffffffffff1673ffffffffffffffffffffffffffffffffffffffff16815260200190815260200160002061127b565b9050919050565b6060600480546107a190611c05565b80601f01602080910402602001604051908101604052809291908181526020018280546107cd90611c05565b801561081a5780601f106107ef5761010080835404028352916020019161081a565b820191906000526020600020905b8154815290600101906020018083116107fd57829003601f168201915b5050505050905090565b80600860003373ffffffffffffffffffffffffffffffffffffffff1673ffffffffffffffffffffffffffffffffffffffff1681526020019081526020016000205461086f9190611d07565b600860003373ffffffffffffffffffffffffffffffffffffffff1673ffffffffffffffffffffffffffffffffffffffff168152602001908152602001600020819055506108bc3382611289565b7f58cf4b39c3689313f11cd2d90f024e097c77e5ec480b91094f96564f51262270816040516108eb9190611927565b60405180910390a150565b600080610901610c8e565b9050600061090f8286610aea565b905083811015610954576040517f08c379a000000000000000000000000000000000000000000000000000000000815260040161094b90611dad565b60405180910390fd5b6109618286868403610c96565b60019250505092915050565b600080610978610c8e565b9050610985818585610eeb565b600191505092915050565b60086020528060005260406000206000915090505481565b834211156109eb576040517f08c379a00000000000000000000000000000000000000000000000000000000081526004016109e290611e19565b60405180910390fd5b60007f6e71edae12b1b97f4d1f60370fef10105fa2faae0126114a169c64845d6126c9888888610a1a8c6113df565b89604051602001610a3096959493929190611e48565b6040516020818303038152906040528051906020012090506000610a538261143d565b90506000610a6382878787611457565b90508973ffffffffffffffffffffffffffffffffffffffff168173ffffffffffffffffffffffffffffffffffffffff1614610ad3576040517f08c379a0000000000000000000000000000000000000000000000000000000008152600401610aca90611ef5565b60405180910390fd5b610ade8a8a8a610c96565b50505050505050505050565b6000600160008473ffffffffffffffffffffffffffffffffffffffff1673ffffffffffffffffffffffffffffffffffffffff16815260200190815260200160002060008373ffffffffffffffffffffffffffffffffffffffff1673ffffffffffffffffffffffffffffffffffffffff16815260200190815260200160002054905092915050565b6000806000806000806000600760009054906101000a900473ffffffffffffffffffffffffffffffffffffffff1673ffffffffffffffffffffffffffffffffffffffff1663feaf968c6040518163ffffffff1660e01b815260040160a060405180830381865afa158015610be9573d6000803e3d6000fd5b505050506040513d601f19601f82011682018060405250810190610c0d9190611f98565b9450945094509450945060006002600186600860003373ffffffffffffffffffffffffffffffffffffffff1673ffffffffffffffffffffffffffffffffffffffff16815260200190815260200160002054610c689190611c65565b610c729190611c65565b610c7c9190611cd6565b90508085975097505050505050509091565b600033905090565b600073ffffffffffffffffffffffffffffffffffffffff168373ffffffffffffffffffffffffffffffffffffffff1603610d05576040517f08c379a0000000000000000000000000000000000000000000000000000000008152600401610cfc90612085565b60405180910390fd5b600073ffffffffffffffffffffffffffffffffffffffff168273ffffffffffffffffffffffffffffffffffffffff1603610d74576040517f08c379a0000000000000000000000000000000000000000000000000000000008152600401610d6b90612117565b60405180910390fd5b80600160008573ffffffffffffffffffffffffffffffffffffffff1673ffffffffffffffffffffffffffffffffffffffff16815260200190815260200160002060008473ffffffffffffffffffffffffffffffffffffffff1673ffffffffffffffffffffffffffffffffffffffff168152602001908152602001600020819055508173ffffffffffffffffffffffffffffffffffffffff168373ffffffffffffffffffffffffffffffffffffffff167f8c5be1e5ebec7d5bd14f71427d1e84f3dd0314c0f7b2291e5b200ac8c7c3b92583604051610e529190611927565b60405180910390a3505050565b6000610e6b8484610aea565b90507fffffffffffffffffffffffffffffffffffffffffffffffffffffffffffffffff8114610ee55781811015610ed7576040517f08c379a0000000000000000000000000000000000000000000000000000000008152600401610ece90612183565b60405180910390fd5b610ee48484848403610c96565b5b50505050565b600073ffffffffffffffffffffffffffffffffffffffff168373ffffffffffffffffffffffffffffffffffffffff1603610f5a576040517f08c379a0000000000000000000000000000000000000000000000000000000008152600401610f5190612215565b60405180910390fd5b600073ffffffffffffffffffffffffffffffffffffffff168273ffffffffffffffffffffffffffffffffffffffff1603610fc9576040517f08c379a0000000000000000000000000000000000000000000000000000000008152600401610fc0906122a7565b60405180910390fd5b610fd4838383611482565b60008060008573ffffffffffffffffffffffffffffffffffffffff1673ffffffffffffffffffffffffffffffffffffffff1681526020019081526020016000205490508181101561105a576040517f08c379a000000000000000000000000000000000000000000000000000000000815260040161105190612339565b60405180910390fd5b8181036000808673ffffffffffffffffffffffffffffffffffffffff1673ffffffffffffffffffffffffffffffffffffffff16815260200190815260200160002081905550816000808573ffffffffffffffffffffffffffffffffffffffff1673ffffffffffffffffffffffffffffffffffffffff168152602001908152602001600020600082825401925050819055508273ffffffffffffffffffffffffffffffffffffffff168473ffffffffffffffffffffffffffffffffffffffff167fddf252ad1be2c89b69c2b068fc378daa952ba7f163c4a11628f55a4df523b3ef846040516111489190611927565b60405180910390a361115b848484611487565b50505050565b60007f000000000000000000000000000000000000000000000000000000000000000073ffffffffffffffffffffffffffffffffffffffff163073ffffffffffffffffffffffffffffffffffffffff161480156111dd57507f000000000000000000000000000000000000000000000000000000000000000046145b1561120a577f00000000000000000000000000000000000000000000000000000000000000009050611278565b6112757f00000000000000000000000000000000000000000000000000000000000000007f00000000000000000000000000000000000000000000000000000000000000007f000000000000000000000000000000000000000000000000000000000000000061148c565b90505b90565b600081600001549050919050565b600073ffffffffffffffffffffffffffffffffffffffff168273ffffffffffffffffffffffffffffffffffffffff16036112f8576040517f08c379a00000000000000000000000000000000000000000000000000000000081526004016112ef906123a5565b60405180910390fd5b61130460008383611482565b80600260008282546113169190611d07565b92505081905550806000808473ffffffffffffffffffffffffffffffffffffffff1673ffffffffffffffffffffffffffffffffffffffff168152602001908152602001600020600082825401925050819055508173ffffffffffffffffffffffffffffffffffffffff16600073ffffffffffffffffffffffffffffffffffffffff167fddf252ad1be2c89b69c2b068fc378daa952ba7f163c4a11628f55a4df523b3ef836040516113c79190611927565b60405180910390a36113db60008383611487565b5050565b600080600560008473ffffffffffffffffffffffffffffffffffffffff1673ffffffffffffffffffffffffffffffffffffffff168152602001908152602001600020905061142c8161127b565b9150611437816114c6565b50919050565b600061145061144a611161565b836114dc565b9050919050565b60008060006114688787878761150f565b91509150611475816115f1565b8192505050949350505050565b505050565b505050565b600083838346306040516020016114a79594939291906123c5565b6040516020818303038152906040528051906020012090509392505050565b6001816000016000828254019250508190555050565b600082826040516020016114f1929190612490565b60405160208183030381529060405280519060200120905092915050565b6000807f7fffffffffffffffffffffffffffffff5d576e7357a4501ddfe92f46681b20a08360001c111561154a5760006003915091506115e8565b60006001878787876040516000815260200160405260405161156f94939291906124c7565b6020604051602081039080840390855afa158015611591573d6000803e3d6000fd5b505050602060405103519050600073ffffffffffffffffffffffffffffffffffffffff168173ffffffffffffffffffffffffffffffffffffffff16036115df576000600192509250506115e8565b80600092509250505b94509492505050565b600060048111156116055761160461250c565b5b8160048111156116185761161761250c565b5b031561175457600160048111156116325761163161250c565b5b8160048111156116455761164461250c565b5b03611685576040517f08c379a000000000000000000000000000000000000000000000000000000000815260040161167c90612587565b60405180910390fd5b600260048111156116995761169861250c565b5b8160048111156116ac576116ab61250c565b5b036116ec576040517f08c379a00000000000000000000000000000000000000000000000000000000081526004016116e3906125f3565b60405180910390fd5b60036004811115611700576116ff61250c565b5b8160048111156117135761171261250c565b5b03611753576040517f08c379a000000000000000000000000000000000000000000000000000000000815260040161174a90612685565b60405180910390fd5b5b50565b600081519050919050565b600082825260208201905092915050565b60005b83811015611791578082015181840152602081019050611776565b60008484015250505050565b6000601f19601f8301169050919050565b60006117b982611757565b6117c38185611762565b93506117d3818560208601611773565b6117dc8161179d565b840191505092915050565b6000602082019050818103600083015261180181846117ae565b905092915050565b600080fd5b600073ffffffffffffffffffffffffffffffffffffffff82169050919050565b60006118398261180e565b9050919050565b6118498161182e565b811461185457600080fd5b50565b60008135905061186681611840565b92915050565b6000819050919050565b61187f8161186c565b811461188a57600080fd5b50565b60008135905061189c81611876565b92915050565b600080604083850312156118b9576118b8611809565b5b60006118c785828601611857565b92505060206118d88582860161188d565b9150509250929050565b60008115159050919050565b6118f7816118e2565b82525050565b600060208201905061191260008301846118ee565b92915050565b6119218161186c565b82525050565b600060208201905061193c6000830184611918565b92915050565b60008060006060848603121561195b5761195a611809565b5b600061196986828701611857565b935050602061197a86828701611857565b925050604061198b8682870161188d565b9150509250925092565b600060ff82169050919050565b6119ab81611995565b82525050565b60006020820190506119c660008301846119a2565b92915050565b6000819050919050565b6119df816119cc565b82525050565b60006020820190506119fa60008301846119d6565b92915050565b600060208284031215611a1657611a15611809565b5b6000611a2484828501611857565b91505092915050565b600060208284031215611a4357611a42611809565b5b6000611a518482850161188d565b91505092915050565b611a6381611995565b8114611a6e57600080fd5b50565b600081359050611a8081611a5a565b92915050565b611a8f816119cc565b8114611a9a57600080fd5b50565b600081359050611aac81611a86565b92915050565b600080600080600080600060e0888a031215611ad157611ad0611809565b5b6000611adf8a828b01611857565b9750506020611af08a828b01611857565b9650506040611b018a828b0161188d565b9550506060611b128a828b0161188d565b9450506080611b238a828b01611a71565b93505060a0611b348a828b01611a9d565b92505060c0611b458a828b01611a9d565b91505092959891949750929550565b60008060408385031215611b6b57611b6a611809565b5b6000611b7985828601611857565b9250506020611b8a85828601611857565b9150509250929050565b6000819050919050565b611ba781611b94565b82525050565b6000604082019050611bc26000830185611918565b611bcf6020830184611b9e565b9392505050565b7f4e487b7100000000000000000000000000000000000000000000000000000000600052602260045260246000fd5b60006002820490506001821680611c1d57607f821691505b602082108103611c3057611c2f611bd6565b5b50919050565b7f4e487b7100000000000000000000000000000000000000000000000000000000600052601160045260246000fd5b6000611c708261186c565b9150611c7b8361186c565b9250828202611c898161186c565b91508282048414831517611ca057611c9f611c36565b5b5092915050565b7f4e487b7100000000000000000000000000000000000000000000000000000000600052601260045260246000fd5b6000611ce18261186c565b9150611cec8361186c565b925082611cfc57611cfb611ca7565b5b828204905092915050565b6000611d128261186c565b9150611d1d8361186c565b9250828201905080821115611d3557611d34611c36565b5b92915050565b7f45524332303a2064656372656173656420616c6c6f77616e63652062656c6f7760008201527f207a65726f000000000000000000000000000000000000000000000000000000602082015250565b6000611d97602583611762565b9150611da282611d3b565b604082019050919050565b60006020820190508181036000830152611dc681611d8a565b9050919050565b7f45524332305065726d69743a206578706972656420646561646c696e65000000600082015250565b6000611e03601d83611762565b9150611e0e82611dcd565b602082019050919050565b60006020820190508181036000830152611e3281611df6565b9050919050565b611e428161182e565b82525050565b600060c082019050611e5d60008301896119d6565b611e6a6020830188611e39565b611e776040830187611e39565b611e846060830186611918565b611e916080830185611918565b611e9e60a0830184611918565b979650505050505050565b7f45524332305065726d69743a20696e76616c6964207369676e61747572650000600082015250565b6000611edf601e83611762565b9150611eea82611ea9565b602082019050919050565b60006020820190508181036000830152611f0e81611ed2565b9050919050565b600069ffffffffffffffffffff82169050919050565b611f3481611f15565b8114611f3f57600080fd5b50565b600081519050611f5181611f2b565b92915050565b611f6081611b94565b8114611f6b57600080fd5b50565b600081519050611f7d81611f57565b92915050565b600081519050611f9281611876565b92915050565b600080600080600060a08688031215611fb457611fb3611809565b5b6000611fc288828901611f42565b9550506020611fd388828901611f6e565b9450506040611fe488828901611f83565b9350506060611ff588828901611f83565b925050608061200688828901611f42565b9150509295509295909350565b7f45524332303a20617070726f76652066726f6d20746865207a65726f2061646460008201527f7265737300000000000000000000000000000000000000000000000000000000602082015250565b600061206f602483611762565b915061207a82612013565b604082019050919050565b6000602082019050818103600083015261209e81612062565b9050919050565b7f45524332303a20617070726f766520746f20746865207a65726f20616464726560008201527f7373000000000000000000000000000000000000000000000000000000000000602082015250565b6000612101602283611762565b915061210c826120a5565b604082019050919050565b60006020820190508181036000830152612130816120f4565b9050919050565b7f45524332303a20696e73756666696369656e7420616c6c6f77616e6365000000600082015250565b600061216d601d83611762565b915061217882612137565b602082019050919050565b6000602082019050818103600083015261219c81612160565b9050919050565b7f45524332303a207472616e736665722066726f6d20746865207a65726f20616460008201527f6472657373000000000000000000000000000000000000000000000000000000602082015250565b60006121ff602583611762565b915061220a826121a3565b604082019050919050565b6000602082019050818103600083015261222e816121f2565b9050919050565b7f45524332303a207472616e7366657220746f20746865207a65726f206164647260008201527f6573730000000000000000000000000000000000000000000000000000000000602082015250565b6000612291602383611762565b915061229c82612235565b604082019050919050565b600060208201905081810360008301526122c081612284565b9050919050565b7f45524332303a207472616e7366657220616d6f756e742065786365656473206260008201527f616c616e63650000000000000000000000000000000000000000000000000000602082015250565b6000612323602683611762565b915061232e826122c7565b604082019050919050565b6000602082019050818103600083015261235281612316565b9050919050565b7f45524332303a206d696e7420746f20746865207a65726f206164647265737300600082015250565b600061238f601f83611762565b915061239a82612359565b602082019050919050565b600060208201905081810360008301526123be81612382565b9050919050565b600060a0820190506123da60008301886119d6565b6123e760208301876119d6565b6123f460408301866119d6565b6124016060830185611918565b61240e6080830184611e39565b9695505050505050565b600081905092915050565b7f1901000000000000000000000000000000000000000000000000000000000000600082015250565b6000612459600283612418565b915061246482612423565b600282019050919050565b6000819050919050565b61248a612485826119cc565b61246f565b82525050565b600061249b8261244c565b91506124a78285612479565b6020820191506124b78284612479565b6020820191508190509392505050565b60006080820190506124dc60008301876119d6565b6124e960208301866119a2565b6124f660408301856119d6565b61250360608301846119d6565b95945050505050565b7f4e487b7100000000000000000000000000000000000000000000000000000000600052602160045260246000fd5b7f45434453413a20696e76616c6964207369676e61747572650000000000000000600082015250565b6000612571601883611762565b915061257c8261253b565b602082019050919050565b600060208201905081810360008301526125a081612564565b9050919050565b7f45434453413a20696e76616c6964207369676e6174757265206c656e67746800600082015250565b60006125dd601f83611762565b91506125e8826125a7565b602082019050919050565b6000602082019050818103600083015261260c816125d0565b9050919050565b7f45434453413a20696e76616c6964207369676e6174757265202773272076616c60008201527f7565000000000000000000000000000000000000000000000000000000000000602082015250565b600061266f602283611762565b915061267a82612613565b604082019050919050565b6000602082019050818103600083015261269e81612662565b905091905056fea2646970667358221220c1aa2e931e06a8be5016cd616225a6eeb54fdd9f9f7e656bc894c88306fcffa064736f6c63430008110033",
  "devdoc": {
    "kind": "dev",
    "methods": {
      "DOMAIN_SEPARATOR()": {
        "details": "See {IERC20Permit-DOMAIN_SEPARATOR}."
      },
      "allowance(address,address)": {
        "details": "See {IERC20-allowance}."
      },
      "approve(address,uint256)": {
        "details": "See {IERC20-approve}. NOTE: If `amount` is the maximum `uint256`, the allowance is not updated on `transferFrom`. This is semantically equivalent to an infinite approval. Requirements: - `spender` cannot be the zero address."
      },
      "balanceOf(address)": {
        "details": "See {IERC20-balanceOf}."
      },
      "decimals()": {
        "details": "Returns the number of decimals used to get its user representation. For example, if `decimals` equals `2`, a balance of `505` tokens should be displayed to a user as `5.05` (`505 / 10 ** 2`). Tokens usually opt for a value of 18, imitating the relationship between Ether and Wei. This is the value {ERC20} uses, unless this function is overridden; NOTE: This information is only used for _display_ purposes: it in no way affects any of the arithmetic of the contract, including {IERC20-balanceOf} and {IERC20-transfer}."
      },
      "decreaseAllowance(address,uint256)": {
        "details": "Atomically decreases the allowance granted to `spender` by the caller. This is an alternative to {approve} that can be used as a mitigation for problems described in {IERC20-approve}. Emits an {Approval} event indicating the updated allowance. Requirements: - `spender` cannot be the zero address. - `spender` must have allowance for the caller of at least `subtractedValue`."
      },
      "increaseAllowance(address,uint256)": {
        "details": "Atomically increases the allowance granted to `spender` by the caller. This is an alternative to {approve} that can be used as a mitigation for problems described in {IERC20-approve}. Emits an {Approval} event indicating the updated allowance. Requirements: - `spender` cannot be the zero address."
      },
      "name()": {
        "details": "Returns the name of the token."
      },
      "nonces(address)": {
        "details": "See {IERC20Permit-nonces}."
      },
      "permit(address,address,uint256,uint256,uint8,bytes32,bytes32)": {
        "details": "See {IERC20Permit-permit}."
      },
      "symbol()": {
        "details": "Returns the symbol of the token, usually a shorter version of the name."
      },
      "totalSupply()": {
        "details": "See {IERC20-totalSupply}."
      },
      "transfer(address,uint256)": {
        "details": "See {IERC20-transfer}. Requirements: - `to` cannot be the zero address. - the caller must have a balance of at least `amount`."
      },
      "transferFrom(address,address,uint256)": {
        "details": "See {IERC20-transferFrom}. Emits an {Approval} event indicating the updated allowance. This is not required by the EIP. See the note at the beginning of {ERC20}. NOTE: Does not update the allowance if the current allowance is the maximum `uint256`. Requirements: - `from` and `to` cannot be the zero address. - `from` must have a balance of at least `amount`. - the caller must have allowance for ``from``'s tokens of at least `amount`."
      }
    },
    "version": 1
  },
  "userdoc": {
    "kind": "user",
    "methods": {},
    "version": 1
  },
  "storageLayout": {
    "storage": [
      {
        "astId": 61,
        "contract": "contracts/MintPioneers.sol:MintPioneers",
        "label": "_balances",
        "offset": 0,
        "slot": "0",
        "type": "t_mapping(t_address,t_uint256)"
      },
      {
        "astId": 67,
        "contract": "contracts/MintPioneers.sol:MintPioneers",
        "label": "_allowances",
        "offset": 0,
        "slot": "1",
        "type": "t_mapping(t_address,t_mapping(t_address,t_uint256))"
      },
      {
        "astId": 69,
        "contract": "contracts/MintPioneers.sol:MintPioneers",
        "label": "_totalSupply",
        "offset": 0,
        "slot": "2",
        "type": "t_uint256"
      },
      {
        "astId": 71,
        "contract": "contracts/MintPioneers.sol:MintPioneers",
        "label": "_name",
        "offset": 0,
        "slot": "3",
        "type": "t_string_storage"
      },
      {
        "astId": 73,
        "contract": "contracts/MintPioneers.sol:MintPioneers",
        "label": "_symbol",
        "offset": 0,
        "slot": "4",
        "type": "t_string_storage"
      },
      {
        "astId": 758,
        "contract": "contracts/MintPioneers.sol:MintPioneers",
        "label": "_nonces",
        "offset": 0,
        "slot": "5",
        "type": "t_mapping(t_address,t_struct(Counter)971_storage)"
      },
      {
        "astId": 766,
        "contract": "contracts/MintPioneers.sol:MintPioneers",
        "label": "_PERMIT_TYPEHASH_DEPRECATED_SLOT",
        "offset": 0,
        "slot": "6",
        "type": "t_bytes32"
      },
      {
        "astId": 2606,
        "contract": "contracts/MintPioneers.sol:MintPioneers",
        "label": "priceFeed",
        "offset": 0,
        "slot": "7",
        "type": "t_contract(AggregatorV3Interface)45"
      },
      {
        "astId": 2614,
        "contract": "contracts/MintPioneers.sol:MintPioneers",
        "label": "OwnerToToken",
        "offset": 0,
        "slot": "8",
        "type": "t_mapping(t_address,t_uint256)"
      },
      {
        "astId": 2619,
        "contract": "contracts/MintPioneers.sol:MintPioneers",
        "label": "eqvi_eth",
        "offset": 0,
        "slot": "9",
        "type": "t_uint256"
      }
    ],
    "types": {
      "t_address": {
        "encoding": "inplace",
        "label": "address",
        "numberOfBytes": "20"
      },
      "t_bytes32": {
        "encoding": "inplace",
        "label": "bytes32",
        "numberOfBytes": "32"
      },
      "t_contract(AggregatorV3Interface)45": {
        "encoding": "inplace",
        "label": "contract AggregatorV3Interface",
        "numberOfBytes": "20"
      },
      "t_mapping(t_address,t_mapping(t_address,t_uint256))": {
        "encoding": "mapping",
        "key": "t_address",
        "label": "mapping(address => mapping(address => uint256))",
        "numberOfBytes": "32",
        "value": "t_mapping(t_address,t_uint256)"
      },
      "t_mapping(t_address,t_struct(Counter)971_storage)": {
        "encoding": "mapping",
        "key": "t_address",
        "label": "mapping(address => struct Counters.Counter)",
        "numberOfBytes": "32",
        "value": "t_struct(Counter)971_storage"
      },
      "t_mapping(t_address,t_uint256)": {
        "encoding": "mapping",
        "key": "t_address",
        "label": "mapping(address => uint256)",
        "numberOfBytes": "32",
        "value": "t_uint256"
      },
      "t_string_storage": {
        "encoding": "bytes",
        "label": "string",
        "numberOfBytes": "32"
      },
      "t_struct(Counter)971_storage": {
        "encoding": "inplace",
        "label": "struct Counters.Counter",
        "members": [
          {
            "astId": 970,
            "contract": "contracts/MintPioneers.sol:MintPioneers",
            "label": "_value",
            "offset": 0,
            "slot": "0",
            "type": "t_uint256"
          }
        ],
        "numberOfBytes": "32"
      },
      "t_uint256": {
        "encoding": "inplace",
        "label": "uint256",
        "numberOfBytes": "32"
      }
    }
  }
}